{
  "contractName": "TestUniswap",
  "abi": [
    {
      "inputs": [
        {
          "internalType": "address",
          "name": "_tokenIn",
          "type": "address"
        },
        {
          "internalType": "address",
          "name": "_tokenOut",
          "type": "address"
        },
        {
          "internalType": "uint256",
          "name": "_amountIn",
          "type": "uint256"
        },
        {
          "internalType": "uint256",
          "name": "_amountOutMin",
          "type": "uint256"
        },
        {
          "internalType": "address",
          "name": "_to",
          "type": "address"
        }
      ],
      "name": "swap",
      "outputs": [],
      "stateMutability": "nonpayable",
      "type": "function"
    },
    {
      "inputs": [
        {
          "internalType": "address",
          "name": "_tokenIn",
          "type": "address"
        },
        {
          "internalType": "address",
          "name": "_tokenOut",
          "type": "address"
        },
        {
          "internalType": "uint256",
          "name": "_amountIn",
          "type": "uint256"
        }
      ],
      "name": "getAmountOutMin",
      "outputs": [
        {
          "internalType": "uint256",
          "name": "",
          "type": "uint256"
        }
      ],
      "stateMutability": "view",
      "type": "function"
    }
  ],
  "bytecode": "0x608060405234801561000f575f80fd5b50610e9c8061001d5f395ff3fe608060405234801561000f575f80fd5b5060043610610034575f3560e01c80633c50eec114610038578063d5bcb9b514610068575b5f80fd5b610052600480360381019061004d9190610937565b610084565b60405161005f9190610996565b60405180910390f35b610082600480360381019061007d91906109af565b61041b565b005b5f606073c02aaa39b223fe8d0a0e5c4f27ead9083c756cc273ffffffffffffffffffffffffffffffffffffffff168573ffffffffffffffffffffffffffffffffffffffff161480610114575073c02aaa39b223fe8d0a0e5c4f27ead9083c756cc273ffffffffffffffffffffffffffffffffffffffff168473ffffffffffffffffffffffffffffffffffffffff16145b1561020757600267ffffffffffffffff81111561013457610133610a26565b5b6040519080825280602002602001820160405280156101625781602001602082028036833780820191505090505b50905084815f8151811061017957610178610a53565b5b602002602001019073ffffffffffffffffffffffffffffffffffffffff16908173ffffffffffffffffffffffffffffffffffffffff168152505083816001815181106101c8576101c7610a53565b5b602002602001019073ffffffffffffffffffffffffffffffffffffffff16908173ffffffffffffffffffffffffffffffffffffffff1681525050610354565b600367ffffffffffffffff81111561022257610221610a26565b5b6040519080825280602002602001820160405280156102505781602001602082028036833780820191505090505b50905084815f8151811061026757610266610a53565b5b602002602001019073ffffffffffffffffffffffffffffffffffffffff16908173ffffffffffffffffffffffffffffffffffffffff168152505073c02aaa39b223fe8d0a0e5c4f27ead9083c756cc2816001815181106102ca576102c9610a53565b5b602002602001019073ffffffffffffffffffffffffffffffffffffffff16908173ffffffffffffffffffffffffffffffffffffffff1681525050838160028151811061031957610318610a53565b5b602002602001019073ffffffffffffffffffffffffffffffffffffffff16908173ffffffffffffffffffffffffffffffffffffffff16815250505b5f737a250d5630b4cf539739df2c5dacb4c659f2488d73ffffffffffffffffffffffffffffffffffffffff1663d06ca61f85846040518363ffffffff1660e01b81526004016103a4929190610b37565b5f60405180830381865afa1580156103be573d5f803e3d5ffd5b505050506040513d5f823e3d601f19601f820116820180604052508101906103e69190610c9c565b905080600183516103f79190610d10565b8151811061040857610407610a53565b5b6020026020010151925050509392505050565b8473ffffffffffffffffffffffffffffffffffffffff166323b872dd3330866040518463ffffffff1660e01b815260040161045893929190610d52565b6020604051808303815f875af1158015610474573d5f803e3d5ffd5b505050506040513d601f19601f820116820180604052508101906104989190610dbc565b508473ffffffffffffffffffffffffffffffffffffffff1663095ea7b3737a250d5630b4cf539739df2c5dacb4c659f2488d856040518363ffffffff1660e01b81526004016104e8929190610de7565b6020604051808303815f875af1158015610504573d5f803e3d5ffd5b505050506040513d601f19601f820116820180604052508101906105289190610dbc565b50606073c02aaa39b223fe8d0a0e5c4f27ead9083c756cc273ffffffffffffffffffffffffffffffffffffffff168673ffffffffffffffffffffffffffffffffffffffff1614806105b8575073c02aaa39b223fe8d0a0e5c4f27ead9083c756cc273ffffffffffffffffffffffffffffffffffffffff168573ffffffffffffffffffffffffffffffffffffffff16145b156106ab57600267ffffffffffffffff8111156105d8576105d7610a26565b5b6040519080825280602002602001820160405280156106065781602001602082028036833780820191505090505b50905085815f8151811061061d5761061c610a53565b5b602002602001019073ffffffffffffffffffffffffffffffffffffffff16908173ffffffffffffffffffffffffffffffffffffffff1681525050848160018151811061066c5761066b610a53565b5b602002602001019073ffffffffffffffffffffffffffffffffffffffff16908173ffffffffffffffffffffffffffffffffffffffff16815250506107f8565b600367ffffffffffffffff8111156106c6576106c5610a26565b5b6040519080825280602002602001820160405280156106f45781602001602082028036833780820191505090505b50905085815f8151811061070b5761070a610a53565b5b602002602001019073ffffffffffffffffffffffffffffffffffffffff16908173ffffffffffffffffffffffffffffffffffffffff168152505073c02aaa39b223fe8d0a0e5c4f27ead9083c756cc28160018151811061076e5761076d610a53565b5b602002602001019073ffffffffffffffffffffffffffffffffffffffff16908173ffffffffffffffffffffffffffffffffffffffff168152505084816002815181106107bd576107bc610a53565b5b602002602001019073ffffffffffffffffffffffffffffffffffffffff16908173ffffffffffffffffffffffffffffffffffffffff16815250505b737a250d5630b4cf539739df2c5dacb4c659f2488d73ffffffffffffffffffffffffffffffffffffffff166338ed173985858486426040518663ffffffff1660e01b815260040161084d959493929190610e0e565b5f604051808303815f875af1158015610868573d5f803e3d5ffd5b505050506040513d5f823e3d601f19601f820116820180604052508101906108909190610c9c565b50505050505050565b5f604051905090565b5f80fd5b5f80fd5b5f73ffffffffffffffffffffffffffffffffffffffff82169050919050565b5f6108d3826108aa565b9050919050565b6108e3816108c9565b81146108ed575f80fd5b50565b5f813590506108fe816108da565b92915050565b5f819050919050565b61091681610904565b8114610920575f80fd5b50565b5f813590506109318161090d565b92915050565b5f805f6060848603121561094e5761094d6108a2565b5b5f61095b868287016108f0565b935050602061096c868287016108f0565b925050604061097d86828701610923565b9150509250925092565b61099081610904565b82525050565b5f6020820190506109a95f830184610987565b92915050565b5f805f805f60a086880312156109c8576109c76108a2565b5b5f6109d5888289016108f0565b95505060206109e6888289016108f0565b94505060406109f788828901610923565b9350506060610a0888828901610923565b9250506080610a19888289016108f0565b9150509295509295909350565b7f4e487b71000000000000000000000000000000000000000000000000000000005f52604160045260245ffd5b7f4e487b71000000000000000000000000000000000000000000000000000000005f52603260045260245ffd5b5f81519050919050565b5f82825260208201905092915050565b5f819050602082019050919050565b610ab2816108c9565b82525050565b5f610ac38383610aa9565b60208301905092915050565b5f602082019050919050565b5f610ae582610a80565b610aef8185610a8a565b9350610afa83610a9a565b805f5b83811015610b2a578151610b118882610ab8565b9750610b1c83610acf565b925050600181019050610afd565b5085935050505092915050565b5f604082019050610b4a5f830185610987565b8181036020830152610b5c8184610adb565b90509392505050565b5f80fd5b5f601f19601f8301169050919050565b610b8282610b69565b810181811067ffffffffffffffff82111715610ba157610ba0610a26565b5b80604052505050565b5f610bb3610899565b9050610bbf8282610b79565b919050565b5f67ffffffffffffffff821115610bde57610bdd610a26565b5b602082029050602081019050919050565b5f80fd5b5f81519050610c018161090d565b92915050565b5f610c19610c1484610bc4565b610baa565b90508083825260208201905060208402830185811115610c3c57610c3b610bef565b5b835b81811015610c655780610c518882610bf3565b845260208401935050602081019050610c3e565b5050509392505050565b5f82601f830112610c8357610c82610b65565b5b8151610c93848260208601610c07565b91505092915050565b5f60208284031215610cb157610cb06108a2565b5b5f82015167ffffffffffffffff811115610cce57610ccd6108a6565b5b610cda84828501610c6f565b91505092915050565b7f4e487b71000000000000000000000000000000000000000000000000000000005f52601160045260245ffd5b5f610d1a82610904565b9150610d2583610904565b9250828203905081811115610d3d57610d3c610ce3565b5b92915050565b610d4c816108c9565b82525050565b5f606082019050610d655f830186610d43565b610d726020830185610d43565b610d7f6040830184610987565b949350505050565b5f8115159050919050565b610d9b81610d87565b8114610da5575f80fd5b50565b5f81519050610db681610d92565b92915050565b5f60208284031215610dd157610dd06108a2565b5b5f610dde84828501610da8565b91505092915050565b5f604082019050610dfa5f830185610d43565b610e076020830184610987565b9392505050565b5f60a082019050610e215f830188610987565b610e2e6020830187610987565b8181036040830152610e408186610adb565b9050610e4f6060830185610d43565b610e5c6080830184610987565b969550505050505056fea2646970667358221220c4dae4bcf0cb5c04c3aeec3f26f153c2db38d6ef245146758061ce4defd791e164736f6c63430008150033",
  "immutableReferences": {},
  "source": "// SPDX-License-Identifier: MIT\r\npragma solidity ^0.8;\r\n\r\nimport \"@openzeppelin/contracts/token/ERC20/IERC20.sol\";\r\nimport \"./interfaces/Uniswap.sol\";\r\n\r\ncontract TestUniswap {\r\n  address private constant UNISWAP_V2_ROUTER =\r\n    0x7a250d5630B4cF539739dF2C5dAcb4c659F2488D;\r\n  address private constant WETH = 0xC02aaA39b223FE8D0A0e5C4F27eAD9083C756Cc2;\r\n\r\n  function swap(\r\n    address _tokenIn,\r\n    address _tokenOut,\r\n    uint _amountIn,\r\n    uint _amountOutMin,\r\n    address _to\r\n  ) external {\r\n    IERC20(_tokenIn).transferFrom(msg.sender, address(this), _amountIn);\r\n    IERC20(_tokenIn).approve(UNISWAP_V2_ROUTER, _amountIn);\r\n\r\n    address[] memory path;\r\n    if (_tokenIn == WETH || _tokenOut == WETH) {\r\n      path = new address[](2);\r\n      path[0] = _tokenIn;\r\n      path[1] = _tokenOut;\r\n    } else {\r\n      path = new address[](3);\r\n      path[0] = _tokenIn;\r\n      path[1] = WETH;\r\n      path[2] = _tokenOut;\r\n    }\r\n\r\n    IUniswapV2Router(UNISWAP_V2_ROUTER).swapExactTokensForTokens(\r\n      _amountIn,\r\n      _amountOutMin,\r\n      path,\r\n      _to,\r\n      block.timestamp\r\n    );\r\n  }\r\n\r\n  function getAmountOutMin(\r\n    address _tokenIn,\r\n    address _tokenOut,\r\n    uint _amountIn\r\n  ) external view returns (uint) {\r\n    address[] memory path;\r\n    if (_tokenIn == WETH || _tokenOut == WETH) {\r\n      path = new address[](2);\r\n      path[0] = _tokenIn;\r\n      path[1] = _tokenOut;\r\n    } else {\r\n      path = new address[](3);\r\n      path[0] = _tokenIn;\r\n      path[1] = WETH;\r\n      path[2] = _tokenOut;\r\n    }\r\n\r\n    // same length as path\r\n    uint[] memory amountOutMins =\r\n      IUniswapV2Router(UNISWAP_V2_ROUTER).getAmountsOut(_amountIn, path);\r\n\r\n    return amountOutMins[path.length - 1];\r\n  }\r\n}",
  "sourcePath": "D:\\Charity\\uniswap-project\\contracts\\TestUniswap.sol",
  "compiler": {
    "name": "solc",
    "version": "0.8.21+commit.d9974bed.Emscripten.clang"
  },
  "schemaVersion": "3.4.16",
  "updatedAt": "2024-07-22T10:37:42.058Z",
  "devdoc": {
    "kind": "dev",
    "methods": {},
    "version": 1
  },
  "userdoc": {
    "kind": "user",
    "methods": {},
    "version": 1
  }
}